:100000000C947B300C94C66D0C949B6D0C94706DAD
:100010000C94456D0C941A6D0C94EF6C0C94C46C9C
:100020000C94996C0C94A1450C942A6C0C94B46BB0
:100030000C94AC300C94AC300C94AC300C94AC30D0
:100040000C94AC300C94AC300C94AC300C94AC30C0
:100050000C94AC300C9402700C94AC300C94BE42F6
:100060000C94AC300C947EA60C9454A60C94AC303A
:100070000C94AC300C94AC300C94AC300C94AC3090
:100080000C94AC300C94AC300C94AC300C94AC3080
:100090000C942AA60C9400A60C94AC300C947D44CD
:1000A0000C94AC300C94AC300C94AC300C94AC3060
:1000B0000C94AC300C94AC300C94AC300C94AC3050
:1000C0000C94AC300C94AC300C94AC300C94D6A5A1
:1000D0000C94ACA50C94AC300C9482A50C9458A54F
:1000E0000C94AC3008000000BE922449123EABAA2A
:1000F000AA2ABECDCCCC4C3E00000080BEABAAAA42
:10010000AA3E00000000BF000000803F0000000089
:1001100000084178D3BB4387D1133D190E3CC3BDC2
:100120004282AD2B3E68EC8276BED98FE1A93E4C6F
:1001300080EFFFBE01C4FF7F3F00000000004E4182
:100140004E494E495459494E46CDCCCC3D0AD72351
:100150003C17B7D13877CC2B329595E6241FB14F99
:100160000A000020410000C84200401C4620BCBEDE
:100170004CCA1B0E5AAEC59D7448617352656C6FB4
:100180006164446F6F724C6F636B203D2000497354
:10019000426C61636B426F776C41726561203D20F8
:1001A000002C20436F756E74203D200041766572EF
:1001B000616765206F66206E6F6E2D7A65726F20A5
:1001C000496E697469616C4163747561746F7250D2
:1001D0006F736974696F6E73203D20005D203D2050
:1001E0000053657269616C4E756D626572735B0078
:1001F0005D203D200053657269616C4E756D6265CE
:10020000724861734265656E44697370656E7365AB
:10021000645B005D203D2000496E697469616C413A
:1002200063747561746F72506F736974696F6E7304
:100230005B00496E697469616C4163747561746FC8
:1002400072506F736974696F6E203D200053636153
:100250006C655F43616C6962726174696F6E5F5750
:100260006569676874203D20005363616C655F4376
:10027000616C6962726174696F6E5F3230306720E1
:100280003D20005363616C655F43616C696272611C
:1002900074696F6E5F5A65726F203D200053636111
:1002A0006C655F43616C6962726174696F6E203D59
:1002B000200046575F4255494C44203D2000465798
:1002C0005F4D494E4F52203D200046575F4D414AF9
:1002D0004F52203D200044697370656E7365725FF4
:1002E00053657269616C203D200045455050524F66
:1002F0004D5F56455253494F4E203D20004765748F
:10030000414D54323033456E636F646572506F7384
:100310006974696F6E20414D543230336375727267
:10032000656E74506F736974696F6E3A2000526124
:100330007720414D5432303363757272656E74505C
:100340006F736974696F6E3A20005265736574202B
:1003500041726475696E6F20746F20726573746189
:1003600072742070726F6772616D2E004572726FC9
:1003700072206F627461696E696E6720706F736955
:1003800074696F6E2E00446F6E65207A65726F69B6
:100390006E6720656E636F6465722C2043757272A0
:1003A000656E7420706F736974696F6E3A200052C5
:1003B000657365742041726475696E6F20746F2077
:1003C000726573746172742070726F6772616D2EE2
:1003D000004572726F72206F627461696E696E6738
:1003E00020706F736974696F6E2E00342E2E2E008C
:1003F000332E2E2E00322E2E2E00312E2E2E004782
:100400006F696E6720746F207A65726F20746865FB
:1004100020414D5432303320656E636F6465722025
:100420006E6F772E2E2E206D6179206E65656420AB
:10043000746F20706F776572206379636C652061DB
:100440006674657220746869732E00436F727265FA
:100450006374656420414D5432323220456E636FBF
:100460006465723A2000414D5432323220456E6349
:100470006F6465723A2000414D5432323220726509
:100480006164206572726F722E20417474656D70A4
:1004900074733A2000446F6E65207A65726F696EDE
:1004A0006720656E636F6465722C20437572726598
:1004B0006E7420706F736974696F6E3A2000476FB5
:1004C000696E6720746F207A65726F20746865208A
:1004D000414D5432323220656E636F646572206E16
:1004E0006F772E2E2E00456E64696E67204163740F
:1004F0007561746F7220506F736974696F6E203DFF
:1005000020005374617274696E6720416374756171
:10051000746F7220506F736974696F6E203D200094
:10052000486F6D654163747561746F722077617394
:10053000207375636365737366756C212020426F49
:100540007468206163747561746F727320656E6482
:1005500065642075702E002C204163747561746F82
:10056000724F7574657255704F70746F203D200026
:10057000486F6D654163747561746F722077617344
:10058000204E4F54207375636365737366756C2CCE
:100590002062656361757365206163747561746F52
:1005A000727320617265206E6F7420626F746820B0
:1005B00075702E20204163747561746F72496E6E80
:1005C000657255704F70746F203D20004261642049
:1005D0006F7269656E746174696F6E2C20726563E9
:1005E0006F6D6D656E6420666C69702061637475F3
:1005F00061746F722031383020646567726565738D
:1006000020736F2074686174206D617820746F723C
:10061000717565206973206F6E206F757465722027
:10062000736C6F74732073696E6365207468657989
:100630002772652075736564206D6F7265206F6623
:1006400074656E2E00476F6F64206F7269656E74FB
:100650006174696F6E2C206D617820746F72717592
:1006600065206F6E206F7574657220736C6F747384
:100670002073696E636520746865792772652075DB
:10068000736564206D6F7265206F6674656E2E00F1
:100690002C204163747561746F7244697265637470
:1006A000696F6E496E6E6572446F776E4F757465D3
:1006B000725570203D2000456E64206F6620486FA3
:1006C0006D696E67204163747561746F722C20458B
:1006D0006E636F646572203D200046696E616C2018
:1006E0004163747561746F7220706F736974696FA0
:1006F0006E20616674657220686F6D6520746F206E
:10070000302069732000436F6E6669726D696E6791
:10071000206E657720706F736974696F6E206973DE
:1007200020002C20736F206E657720706F736974C2
:10073000696F6E20697320002C20736F2074616BC9
:10074000652074686520646966666572656E6365B8
:1007500020696E207A65726F20706F696E747320E5
:10076000616E642061646A757374206974206279B3
:10077000200043757272656E746C7920617420007C
:100780002C20736F20736574207A65726F20706FF0
:10079000696E74206265747765656E207468652083
:1007A00074776F2C206174200020746F20004163E7
:1007B000747561746F7220456E636F646572207228
:1007C000616E676520697320004163747561746FA1
:1007D0007220456E636F6465722052616E6765209A
:1007E0003C2032207768656E2073686F756C6420DA
:1007F0006265207E3230302D3330302E20436865E4
:10080000636B204163747561746F7220456E636F12
:100810006465722057697265732028342070696E90
:1008200020636F6E6E6563746F72292E2020496697
:10083000206163747561746F727320646964206EE3
:100840006F74206D6F76652C20636865636B206123
:1008500063747561746F72206D6F746F7220776945
:100860007265732028322070696E20636F6E6E652A
:1008700063746F72292E00426F746820616374750F
:1008800061746F72206F70746F7320726561642081
:10089000646F776E202D20746869732069732061FE
:1008A0006E206572726F7220636173652E2020471F
:1008B0006F696E6720746F2073746F7020616E644F
:1008C0002072657475726E206661696C7572652040
:1008D0006F6E20486F6D654163747561746F72212E
:1008E000005374616C6C6564206D6F726520746870
:1008F000616E2035302074696D65732C20657869D0
:1009000074696E672074686973206C6F6F702E0055
:100910005374616C6C656421204E65656420746F4E
:1009200020676F20696E206F746865722064697239
:10093000656374696F6E206E6F772C20616E642022
:1009400072657665727365206C6F6769632E004F00
:10095000757465722075702C20696E6E65722064E6
:100960006F776E202D20736F206D6F766520696E16
:100970006E657220757020666972737420746F20C2
:100980006D616B65206F7574657220676F20646F91
:10099000776E00095573696E6720726576657273AC
:1009A0006564206C6F6769632C2077616974656486
:1009B00020666F7220496E6E657220746F20676FBB
:1009C00020646F776E20686572652073696E636559
:1009D000206F757465722077656E7420646F776E12
:1009E00020696E2070726576696F7573206C6F6F09
:1009F000702E005374616C6C6564206D6F7265209D
:100A00007468616E2035302074696D65732C2065C3
:100A1000786974696E672074686973206C6F6F7091
:100A20002E005374616C6C656421204E65656420F2
:100A3000746F20676F20696E206F74686572206420
:100A40006972656374696F6E206E6F772C20616EBA
:100A5000642072657665727365206C6F6769632EBA
:100A600000094F757465722077656E7420646F7726
:100A70006E207768656E20657870656374696E674F
:100A800020696E6E65722E202052657665727369DC
:100A90006E67206C6F6769632E0009496E6E657220
:100AA00020646F776E2C2073746F7070696E67208E
:100AB0006669727374206C6F6F7000416374756146
:100AC000746F724F7574657255704F70746F2069D2
:100AD0007320646F776E20616C72656164792E207B
:100AE000204D6F76696E6720697420757020616E85
:100AF0006420496E6E657220646F776E2E00426FBF
:100B00007468206172652075702C20636F756C6449
:100B100020676F2065697468657220646972656317
:100B200074696F6E2E202043686F6F73696E672043
:100B3000496E6E657220446F776E2E002C204163E3
:100B4000747561746F72446972656374696F6E491C
:100B50006E6E6572446F776E4F7574657255702056
:100B60003D20005374617274206F6620486F6D6978
:100B70006E67204163747561746F722C20456E63DB
:100B80006F646572203D2000486F6D65486F6C652D
:100B900050756E6368207761732073756363657346
:100BA0007366756C212020426F746820686F6C65D5
:100BB0002070756E6368206F70746F73207265614A
:100BC0006420736166652E002C204469644F75743F
:100BD00065724F70746F546F67676C6550726F7099
:100BE00065726C79203D20002C20446964496E6E4A
:100BF00065724F70746F546F67676C6550726F7079
:100C000065726C79203D20002C20486F6C65507512
:100C10006E63684F75746572536166654F70746F6B
:100C2000203D2000486F6D65486F6C6550756E63A0
:100C30006820776173204E4F54207375636365732A
:100C40007366756C2C206265636175736520686FCF
:100C50006C652070756E6368206F70746F732061AF
:100C60007265206E6F7420626F74682073616665B0
:100C70002C206F7220696E6E6572206F72206F7506
:100C8000746572206F70746F20646964206E6F7475
:100C900020746F67676C6520647572696E67206881
:100CA0006F6D696E672E0A486F6C6550756E63686C
:100CB000496E6E6572536166654F70746F203D209A
:100CC0000046696E616C20486F6C652050756E63DC
:100CD0006820706F736974696F6E206166746572E5
:100CE00020686F6D6520746F203020697320004389
:100CF0006F6E6669726D696E67206E657720706FC2
:100D0000736974696F6E20697320002C20736F20E3
:100D10006E657720706F736974696F6E20697320D8
:100D2000002C20736F2074616B65207468652064EB
:100D30006966666572656E636520696E207A6572A4
:100D40006F20706F696E747320616E642061646AD5
:100D5000757374206974206279200043757272651E
:100D60006E746C7920617420002C20736F20736581
:100D700074207A65726F20706F696E74206265747A
:100D80007765656E207468652074776F2C206174B8
:100D9000200020746F2000486F6C652050756E63D2
:100DA0006820456E636F6465722072616E676520AE
:100DB00069732000486F6C652050756E636820452C
:100DC0006E636F6465722052616E6765203C2032ED
:100DD000207768656E2073686F756C64206265208B
:100DE0007E3230302D3330302E20436865636B20E7
:100DF0004163747561746F7220456E636F646572D0
:100E00002057697265732028342070696E20636FE3
:100E10006E6E6563746F72292E20204966206163AF
:100E2000747561746F727320646964206E6F7420CE
:100E30006D6F76652C20636865636B2061637475E4
:100E400061746F72206D6F746F7220776972657351
:100E50002028322070696E20636F6E6E6563746F38
:100E600072292E00426F746820686F6C652070755F
:100E70006E6368206F70746F7320726561642064A4
:100E80006F776E202D207468697320697320616EFE
:100E9000206572726F7220636173652E2020476F28
:100EA000696E6720746F2073746F7020616E6420A8
:100EB00072657475726E206661696C757265206FFB
:100EC0006E20486F6D65486F6C6550756E63682164
:100ED00000574520474F5420544F20454E44204F43
:100EE0004620484F4D4520484F4C452050554E43D5
:100EF00048204C4F4F5020574954484F5554204993
:100F00004E4E4552204F50544F20544F47474C4966
:100F10004E47212020436865636B20496E6E6572E1
:100F200020486F6C6550756E6368204F70746F2039
:100F3000666F722066756E6374696F6E616C69743A
:100F4000792E00574520474F5420544F20454E449A
:100F5000204F4620484F4D4520484F4C4520505586
:100F60004E4348204C4F4F5020574954484F5554FA
:100F7000204F55544552204F50544F20544F47470F
:100F80004C494E47212020436865636B204F7574A0
:100F9000657220486F6C6550756E6368204F707481
:100FA0006F20666F722066756E6374696F6E616C18
:100FB0006974792E004F7574657220736166652CB3
:100FC00020736F2073746172742070756E6368692A
:100FD0006E6720696E776172642077697468206F2C
:100FE000757465722E00574520474F5420544F208A
:100FF000454E44204F4620484F4D4520484F4C45D4
:101000002050554E4348204C4F4F5020574954488C
:101010004F5554204F55544552204F50544F205453
:101020004F47474C494E47212020436865636B205A
:101030004F7574657220486F6C6550756E636820DB
:101040004F70746F20666F722066756E6374696F7F
:101050006E616C6974792E00574520474F542054B7
:101060004F20454E44204F4620484F4D4520484F85
:101070004C452050554E4348204C4F4F5020574927
:1010800054484F555420494E4E4552204F50544FCE
:1010900020544F47474C494E472120204368656301
:1010A0006B20496E6E657220486F6C6550756E637B
:1010B00068204F70746F20666F722066756E63745F
:1010C000696F6E616C6974792E00496E6E6572206D
:1010D000736166652C20736F20676F20696E77617E
:1010E0007264207769746820696E6E657200486F5B
:1010F0006D696E6720486F6C652050756E63682C53
:1011000020456E636F646572203D200046696E6104
:101110006C20524742204F75743A09005269676843
:1011200074436F6C6F7250756C7365496E3A090049
:101130004C656674436F6C6F7250756C7365496E65
:101140003A09004661696C656420746F20676574B4
:101150002033782064697374616E63652072656101
:1011600064696E677320696E2052656164436F6CB9
:101170006F7253656E736F72732C20617373756D2C
:10118000696E672063656E74657265642E0009413F
:10119000766752616E67653A09000952616E67654C
:1011A000333A09000952616E6765323A09005261AB
:1011B0006E6765313A0900446F2066756C6C205784
:1011C000484954452072656164696E6700446F2028
:1011D000616D6269656E74206C6967687420726500
:1011E0006164696E672077697468204E656F506925
:1011F00078656C73204F464600436F6C6F722073A6
:10120000656E736F7273206E6F7420696E73746194
:101210006C6C65642C2064656661756C74696E67BE
:1012200020746F20524742282D312C2D312C2D3126
:1012300029000A4C6F61642043656C6C2053616D1A
:10124000706C696E672069737375652C20526561D7
:1012500064696E6773206E6F742077697468696E55
:101260002037352E30206772616D7320696E203013
:101270002E31207365632E2053616D706C65732071
:1012800028313078204144432076616C75657320A5
:1012900066697273742C207468656E203130782012
:1012A000696E206772616D73293A09000A4C6F619B
:1012B000642043656C6C2053616D706C696E6720AF
:1012C0006661696C7572652C2052656164696E6730
:1012D00073206E6F742077697468696E2037352EBD
:1012E00030206772616D7320696E20302E3120735B
:1012F00065632E2053616D706C65732028313078E2
:10130000204144432076616C756573206669727371
:10131000742C207468656E2031307820696E2067E7
:1013200072616D73293A0900094E65772053616D2A
:10133000706C65733A09000A54776F20426164202B
:1013400053616D706C65732C20676F696E672074D4
:101350006F207265706C61636520776974682032F4
:10136000206E65772073616D706C65733A09000AB1
:1013700054776F204261642053616D706C657320F7
:101380006661696C7572652C20676F696E67207481
:101390006F207265706C61636520776974682032B4
:1013A000206E65772073616D706C65733A09000972
:1013B000616C69676E6D656E740900094765744FED
:1013C0007574657252656C6F6164536C6F7409005B
:1013D000436865636B696E67204F7574657252650B
:1013E0006C6F61644973416C69676E656428293A62
:1013F000204765744F7574657252656C6F616453F4
:101400006C6F744173466C6F6174090009616C699B
:10141000676E6D656E74090009476574496E6E6587
:101420007252656C6F6164536C6F74090043686538
:10143000636B696E6720496E6E657252656C6F6191
:10144000644973416C69676E656428293A20476571
:1014500074496E6E657252656C6F6164536C6F7423
:101460004173466C6F6174090009496E6E65725371
:101470006C6F745F48696768203D2009004F757480
:101480006572536C6F745F48696768203D2009007E
:1014900009496E6E6572536C6F745F4C6F77203DB7
:1014A0002009004F75746572536C6F745F4C6F77D1
:1014B000203D20090009496E6E6572536C6F7420DF
:1014C0003D2009004F75746572536C6F74203D2088
:1014D000090009446F6F724F70656E6564456E63F5
:1014E0006F64657253746570706572506F735F4C92
:1014F0006F77203D20090009446F6F724F70656E51
:101500006564456E636F646572537465707065726F
:10151000506F735F48696768203D200900446F6F12
:10152000724F70656E6564456E636F646572537467
:101530006570706572506F73203D2009000941632A
:10154000747561746F724F7574657255704F7074F5
:101550006F203D200900094163747561746F724901
:101560006E6E657255704F70746F203D20090009D2
:101570004361726F7573656C486F6D65203D20091E
:1015800000094163747561746F72506F73203D2060
:10159000090009414D54323232506F736974696FDA
:1015A0006E090009414D54323033506F73697469CC
:1015B0006F6E0900094361726F7573656C447269DF
:1015C000766572506F736974696F6E09004361725A
:1015D0006F7573656C456E636F646572506F736988
:1015E00074696F6E0900484F4D494E472044494485
:1015F000204E4F5420574F524B2050524F5045527F
:101600004C59212020574520415245204E4F54200F
:1016100041542054484520484F4D454341524F5571
:1016200053454C204F50544F204255542053484F5F
:10163000554C4420424521204F72207765206E652D
:10164000766572206D6F766564206F6666206F66C2
:101650002069742070726F7065726C792E00486F0B
:101660006D654361726F7573656C20736571756527
:101670006E6365207375636365737366756C2E00A6
:10168000094163747561746F724F7574657255703A
:101690004F70746F203D20090009416374756174B7
:1016A0006F72496E6E657255704F70746F203D2079
:1016B0000900094361726F7573656C486F6D652031
:1016C0003D20090009616363656C53746570706542
:1016D000722E63757272656E74506F736974696F80
:1016E0006E2829203D200900537465707065725082
:1016F0006F7330203D20090053746570706572204F
:101700006D6F746F72206E6F7420706F7765726585
:1017100064206F72206E6F74206D6F76696E672023
:101720002D20636C6F73652072656C6F616420643B
:101730006F6F7220616E64207472792061676169D5
:101740006E2E0009486F6D654361726F7573656C2D
:10175000456E636F646572506F736974696F6E2054
:101760003D20090009486F6D654361726F757365AF
:101770006C53746570706572506F736974696F6EC5
:10178000203D200900096669727374486F6D6543D6
:1017900061726F7573656C456E636F646572506FCF
:1017A000736974696F6E203D2009006669727374F5
:1017B000486F6D654361726F7573656C53746570C6
:1017C000706572506F736974696F6E203D200900F7
:1017D0005374616C6C696E672064657465637465CD
:1017E000642C206469646E2774206D6F76652061B7
:1017F00074206C65617374203520656E636F646559
:101800007220636F756E747320696E20312073656A
:10181000632E00656E636F646572537465707065E6
:1018200072506F73206F7574206F662072616E67DF
:1018300065202D2073657474696E67206E6577204E
:10184000656E636F64657253746570706572506F16
:1018500073206F66200043757272656E74506F73EB
:101860006974696F6E206F7574206F662072616E87
:101870006765202D2073657474696E67206E6577C7
:101880002043757272656E7420506F736974696F4E
:101890006E206F662000656E636F646572537465B9
:1018A00070706572506F73206F7574206F66207250
:1018B000616E6765202D2073657474696E67206E94
:1018C000657720656E636F646572537465707065CB
:1018D00072506F73206F66200043757272656E746C
:1018E000506F736974696F6E206F7574206F662016
:1018F00072616E6765202D2073657474696E672050
:101900006E65772043757272656E7420506F7369CF
:1019100074696F6E206F662000546F6F206D616E6A
:101920007920476F546F506F736974696F6E2072BE
:10193000657472696573202D206572726F72696EAD
:1019400067206F75742077697468206D69736D61A5
:10195000746368206265747765656E20414D54310B
:10196000303220616E6420414D543230332F414D6E
:1019700054323232206F72206A7573742064696445
:101980006E27742067657420746F207461726765B8
:10199000742E20476F546F506F736974696F6E2097
:1019A0004661696C7572652E005265747279696E54
:1019B0006720746865206361726F7573656C206D54
:1019C0006F76656D656E742064756520746F206335
:1019D000656E74657220656E636F646572206D69F3
:1019E000736D61746368202D20736C697070696E0B
:1019F000672063656E74657220656E636F646572DF
:101A00002E204C696D6974206F6620333020616E22
:101A1000642061637475616C206F66200052657488
:101A20007279696E6720746865206361726F75737F
:101A3000656C206D6F76656D656E742064756520CC
:101A4000746F2073746570706572206D6F746F723F
:101A500020656E636F646572206D69736D61746378
:101A600068202D206C696B656C79207374616C6CD7
:101A70006564206D6F746F722C20746F6F206865C1
:101A80006176792C20746F6F206D756368206672A3
:101A9000696374696F6E2C206F7220626164206DBF
:101AA0006F746F72206D6F756E7420616C69676EF4
:101AB0006D656E742F737072696E672E204C696D40
:101AC0006974206F6620323020616E642061637417
:101AD00075616C206F662000414D543232322045D2
:101AE0006E636F64657220506F736974696F6E20E6
:101AF0004572726F72206F66200054617267657460
:101B000020414D5432323220456E636F646572203D
:101B1000506F736974696F6E206F66200043757231
:101B200072656E7420414D5432323220456E636FBF
:101B300064657220506F736974696F6E206F6620E0
:101B400000414D5432303320456E636F646572201E
:101B5000506F736974696F6E204572726F72206F77
:101B600066200054617267657420414D54323033F1
:101B700020456E636F64657220506F736974696F7E
:101B80006E206F66200043757272656E7420414D41
:101B90005432303320456E636F64657220506F732A
:101BA0006974696F6E206F6620005374657070658C
:101BB0007220456E636F64657220506F736974693B
:101BC0006F6E204572726F72206F662000437572CF
:101BD00072656E74205374657070657220456E6313
:101BE0006F64657220506F736974696F6E206F66E1
:101BF0002000537465707065722044726976657256
:101C000020506F736974696F6E204572726F722015
:101C10006F66200043757272656E74205374657030
:101C20007065722044726976657220506F736974B2
:101C3000696F6E206F6620004361726F7573656C0B
:101C4000206D6F76656D656E74206661696C656484
:101C5000202D2073746F7070696E672E2020456987
:101C600074686572206E6F206D6F76656D656E7439
:101C700020617420616C6C20283C35207374657081
:101C8000732073696E6365206C6173742035303026
:101C9000206D736563292C206F7220706F736974D7
:101CA000696F6E20646576696174696F6E20667213
:101CB0006F6D2077686572652073686F756C64203E
:101CC0006265207673207768657265206172652091
:101CD0006261736564206F6E20656E636F64657208
:101CE0002E0046696E616C2052657472792023342F
:101CF0002C206C6F776572696E6720616363656C19
:101D000065726174696F6E20616E642072616973BF
:101D1000696E67206D6F76652063757272656E748B
:101D20002E0052657472792023332C206C6F7765F6
:101D300072696E6720616363656C65726174696F57
:101D40006E20616E642072616973696E67206D6FC9
:101D500076652063757272656E742E0052657472BA
:101D6000792023322C206C6F776572696E67206151
:101D70006363656C65726174696F6E20616E642067
:101D800072616973696E67206D6F76652063757225
:101D900072656E742E0052657472792023312C2086
:101DA0006C6F776572696E6720616363656C6572DD
:101DB0006174696F6E20616E642072616973696E0F
:101DC00067206D6F76652063757272656E742E0084
:101DD0002E2044697374616E636546726F6D546141
:101DE00072676574203D2000292043616C6C656436
:101DF0002C2043757272656E7420506F736974691C
:101E00006F6E203D2000476F546F506F7369746987
:101E10006F6E456E636F64657228002E204469738F
:101E200074616E636546726F6D546172676574208C
:101E30003D2000292043616C6C65642C2043757241
:101E400072656E7420506F736974696F6E203D20E7
:101E500000476F546F506F736974696F6E28004448
:101E6000697374616E636546726F6D546172676504
:101E7000744D696E7573203D200900446973746167
:101E80006E636546726F6D546172676574506C75F0
:101E900073203D20090044697374616E6365467266
:101EA0006F6D546172676574203D2009004375723F
:101EB00072656E74506F736974696F6E203D20098E
:101EC00000546172676574506F736974696F6E2036
:101ED0003D200900547279696E6720746F20486F45
:101EE0006D654361726F7573656C2C2073696E63E9
:101EF00065206974206861736E277420737563634D
:101F000065737366756C6C7920686F6D6564207994
:101F100065742E00496E76616C696420736C6F7411
:101F2000206E756D6265722000496E76616C696421
:101F300020736C6F74206E756D6265722000496E3F
:101F400076616C696420736C6F74206E756D626568
:101F500072200052464944207261772064617461A6
:101F60003A2000524649442063617264206E756DC8
:101F70006265723A2000436865636B696E67205240
:101F80004649442053656E736F723A00206F662095
:101F9000000A0A4379636C6520005E646F6F725FAC
:101FA0006F70656E65643A307C3A24005E646F6FD2
:101FB000725F6F70656E65643A307C3A24005E64CF
:101FC0006F6F725F636C6F7365643A307C3A2400A4
:101FD0005E646F6F725F636C6F7365643A307C3AF6
:101FE000240052657363616E204C6566746F76657C
:101FF00072203D200052657363616E2057726170DC
:10200000203D200052657363616E204C6566746FDD
:10201000766572203D200052657363616E204E6FBD
:102020002057726170203D200052657363616E20FD
:102030004C6566746F766572203D2000526573634F
:10204000616E2057726170203D200052657363619C
:102050006E204C6566746F766572203D2000526577
:102060007363616E204E6F2057726170203D2000B7
:1020700052657363616E20416C6C203D20003A24F0
:10208000005E6F7665723A317C003A24005E6F76AE
:1020900065723A317C003A24005E6D6973733A319F
:1020A0007C003A24005E6D6973733A317C003A24F7
:1020B000005E7365745F7363616C655F6C65647308
:1020C0005F726573703A327C737563636573733ADC
:1020D000003A24005E7365745F7363616C655F6CC6
:1020E0006564735F726573703A327C7375636365A0
:1020F00073733A007365745F7363616C655F6C65DD
:102100006473006F66660066696E69736865640073
:10211000616C6572740064697370656E73696E6773
:10212000006469737000626F776C00616374697634
:10213000650069646C650056616C7565207061733B
:102140007365643D00496E207365745F7363616CF1
:10215000655F6C65647321003A24005E64656D6F91
:102160005F726573703A327C737563636573733A3B
:10217000003A24005E64656D6F5F726573703A3279
:102180007C737563636573733A0064656D6F0056A5
:10219000616C7565207061737365643D00496E20E4
:1021A00064656D6F2066756E6374696F6E21005E85
:1021B00070696E673A307C3A24005E70696E673AE7
:1021C000307C3A2400416C6C20646F6E6520646939
:1021D0007370656E736520414C4C2066756E637438
:1021E000696F6E21002A2A2A4641494C2A2A2A0070
:1021F0002A2A2A504153532A2A2A005461726765B9
:1022000074206F66207468697320617665726167F7
:1022100065206973203432352D3637352C20736FA5
:102220002074686973206973206120002C20436F3B
:10223000756E74203D200041766572616765206F80
:1022400066206E6F6E2D7A65726F20496E697469B3
:10225000616C4163747561746F72506F73697469F6
:102260006F6E735B312D35305D203D2000203D20A9
:1022700000536C6F742000656D7074790056616C4A
:102280007565207061737365643D00496E206469F3
:102290007370656E736520414C4C2066756E637477
:1022A000696F6E21005E646F6F725F756E6C6F6335
:1022B0006B5F726573703A317C73756363657373BA
:1022C0003A24005E646F6F725F756E6C6F636B5F54
:1022D000726573703A317C737563636573733A2406
:1022E00000646F6F725F756E6C6F636B0041667434
:1022F000657220556E6C6F636B696E672C2052653A
:102300006C6F6164446F6F72556E6C6F636B536575
:102310006E736550696E3A20004265666F72652083
:10232000556E6C6F636B696E672C2052656C6F61C4
:1023300064446F6F72556E6C6F636B53656E73653B
:1023400050696E3A2000496E20646F6F725F756E3F
:102350006C6F636B2066756E6374696F6E21006CC1
:102360006F636B656400756E6C6F636B6564003AD8
:102370002400636C6F7365643A006F70656E3A0099
:102380006C6F636B656400756E6C6F636B65640086
:102390005E646F6F725F7374617475735F7265737F
:1023A000703A327C003A2400636C6F7365643A00C3
:1023B0006F70656E3A005E646F6F725F7374617404
:1023C00075735F726573703A327C00646F6F725F11
:1023D0007374617475730052656C6F6164446F6FE0
:1023E00072556E6C6F636B53656E736550696E20CA
:1023F0003D200052656C6F6164446F6F724F706571
:102400006E203D200041313420414D49532D333061
:10241000353433205664642052656C6F6164446FB8
:102420006F72436C6F736564203D200072656D6F41
:1024300076656400696E736572746564003A2400A1
:1024400072656D6F76656400696E7365727465643C
:10245000005E77697065725F7374617475735F7223
:102460006573703A317C003A24005E77697065725A
:102470005F7374617475735F726573703A317C0059
:1024800077697065725F73746174757300576970F2
:102490006572496E736572746564203D20003A244C
:1024A000005E706F736974696F6E5F63616E6973EC
:1024B0007465725F7265706C6163655F726573707D
:1024C0003A327C6661696C7572653A003A24005E46
:1024D000706F736974696F6E5F63616E6973746541
:1024E000725F7265706C6163655F726573703A32BA
:1024F0007C6661696C7572653A003A24005E706FA3
:10250000736974696F6E5F63616E69737465725F1E
:102510007265706C6163655F726573703A327C736B
:102520007563636573733A003A24005E706F736974
:1025300074696F6E5F63616E69737465725F7265F3
:10254000706C6163655F726573703A327C7375633A
:10255000636573733A00706F736974696F6E5F635C
:10256000616E69737465725F7265706C616365003A
:1025700056616C7565207061737365643D00496ECA
:1025800020706F736974696F6E2063616E69737414
:102590006572207265706C6163652066756E637428
:1025A000696F6E2100496E207061757365206675D4
:1025B0006E6374696F6E21005E72657363616E5F36
:1025C000737461727465643A307C3A24005E72659B
:1025D0007363616E5F737461727465643A307C3AE0
:1025E00024005E72657363616E5F66696E6973680D
:1025F00065643A307C3A24005E72657363616E5F95
:1026000066696E69736865643A307C3A24005E726C
:10261000657363616E5F63616E6973746572735F26
:10262000726573703A317C6661696C7572653A24C3
:10263000005E72657363616E5F63616E697374657A
:1026400072735F726573703A317C6661696C757222
:10265000653A24005E72657363616E5F63616E69E3
:1026600073746572735F726573703A317C737563EE
:10267000636573733A24005E72657363616E5F63B2
:10268000616E6973746572735F726573703A317CE1
:10269000737563636573733A2400282152656C6F08
:1026A0006164446F6F724F70656E20262620486FFC
:1026B0006D654163747561746F725375636365739F
:1026C000734F6E5374617274757020262620486FA4
:1026D0006D65486F6C6550756E63685375636365AF
:1026E00073734F6E5374617274757029203D2000AE
:1026F000486F6D65486F6C6550756E6368537563A0
:10270000636573734F6E53746172747570203D20EE
:1027100000486F6D654163747561746F72537563C2
:10272000636573734F6E53746172747570203D20CE
:102730000052656C6F6164446F6F724F70656E20FC
:102740003D2000547279696E6720746F20486F6D68
:10275000654361726F7573656C2C2073696E636578
:10276000206974206861736E2774207375636365D4
:10277000737366756C6C7920686F6D65642079651C
:10278000742E00496E2072657363616E5F63616EC3
:102790006973746572732066756E6374696F6E21F8
:1027A00000626C61636B007768697465005E7265D6
:1027B0007365745F726573703A317C7375636365BA
:1027C00073733A24005E72657365745F726573702B
:1027D0003A317C737563636573733A2400496E20E4
:1027E00072657365742066756E6374696F6E21001F
:1027F0005E63616E63656C5F726573703A317C73A2
:102800007563636573733A24005E63616E63656C20
:102810005F726573703A317C737563636573733A85
:102820002400496E2063616E63656C2066756E637B
:1028300074696F6E2100496E20726573756D655FF6
:1028400066756E6374696F6E2066756E6374696F0A
:102850006E21003A24005E73797374656D5F63685E
:1028600065636B5F726573703A317C00496E2073EB
:10287000797374656D5F636865636B2066756E63FD
:1028800074696F6E21003A24005E7374617475730D
:102890005F726573703A317C003A24005E73746134
:1028A0007475735F726573703A317C0052656C6F3A
:1028B0006164446F6F72556E6C6F636B53656E73BA
:1028C0006550696E203D20005769706572496E73CE
:1028D0006572746564203D200009486F6C65507511
:1028E0006E63684F75746572536166654F70746F7F
:1028F000203D200009486F6C6550756E6368496E15
:102900006E6572536166654F70746F203D2000657F
:102910006E636F646572486F6C6550756E63684D69
:102920006F746F72506F73203D200009416374759E
:1029300061746F724F7574657255704F70746F204B
:102940003D2000094163747561746F72496E6E6554
:102950007255704F70746F203D2000416374756133
:10296000746F72456E636F646572203D2000413163
:102970003420414D49532D3330353433205664646F
:102980002052656C6F6164446F6F72436C6F736546
:1029900064203D200043757272656E74205765692E
:1029A0006768743A0900496E207374617475735FC7
:1029B00066756E6374696F6E2066756E6374696F99
:1029C0006E21005E626F776C5F7765696768745F20
:1029D000726573703A327C737563636573733A0022
:1029E0005E626F776C5F7765696768745F72657345
:1029F000703A327C737563636573733A005E626F1D
:102A0000776C5F7765696768745F726573703A3277
:102A10007C6661696C7572653A005E626F776C5FA7
:102A20007765696768745F726573703A327C666156
:102A3000696C7572653A002C2053616D706C65731A
:102A400020776572653A2000426F776C2077656960
:102A5000676874204E4F5420534554544C45442CC1
:102A600020736F2072657475726E204661696C7593
:102A70007265206275742072657475726E20416291
:102A8000736F6C75746557656967687420616E79DA
:102A90007761792C204162736F6C75746557656935
:102AA000676874203D20005E70756E63685F686FB4
:102AB0006C655F726573703A317C6661696C7572C2
:102AC000653A24005E70756E63685F686F6C655F61
:102AD000726573703A317C6661696C7572653A240F
:102AE000003A24005E70756E63685F686F6C655FA6
:102AF000726573703A327C737563636573733A24DD
:102B0000003A24005E70756E63685F686F6C655F85
:102B1000726573703A327C737563636573733A00E0
:102B200070756E63685F686F6C6500436C65617299
:102B3000696E6720616C6C20496E697469616C41D3
:102B400063747561746F72506F736974696F6E73BB
:102B50005B5D20616E642053657269616C4E756DBA
:102B60006265724861734265656E44697370656E33
:102B70007365645B5D2E00436865636B2063656EFF
:102B800074657220656E636F64657220666F722073
:102B90006C6F6F73656E6573732F736C697070699A
:102BA0006E67202D206569746865722074686520E1
:102BB00079656C6C6F7720696E73657274206861DB
:102BC0007320636F6D65206C6F6F73652066726F25
:102BD0006D207468652073686166742C2068617369
:102BE00020706F70706564206F7574206F6620634D
:102BF000656E74657220656E636F6465722C206FFC
:102C000072207468652077686F6C6520656E636FED
:102C100064657220697473656C66206861732074E2
:102C20006F6F206D75636820776967676C652074C6
:102C30006F2069742C206E65656473206D6F7265FA
:102C40002074617065206F722069736E2774207321
:102C500065617465642077656C6C2E002A2A2A46AB
:102C600041494C45442A2A2A002A2A2A50415353D2
:102C700045442A2A2A004174206C65617374206FD0
:102C80006E65206F6620746865206361726F75736E
:102C9000656C206D6F76656D656E74732066616915
:102CA0006C65642C20736F207468697320697320CD
:102CB00061206661696C75726520616E64206E6F5B
:102CC0007420612076616C69642063656E7465723E
:102CD00020656E636F64657220736C697070696ED5
:102CE0006720746573742E002A2A2A4641494C4590
:102CF000442A2A2A00546869732076616C7565201D
:102D000073686F756C64206265203C2031352074D7
:102D10006F20656E73757265206E6F20736C6970BD
:102D200070696E672E00446966666572656E6365DC
:102D300020696E2063656E74657220656E636F64D2
:102D4000657220706F736974696F6E207768656E45
:102D5000206D6F76696E6720636C6F636B77697344
:102D60006520767320636F756E746572636C6F6334
:102D70006B77697365206973200043656E746572B3
:102D800020656E636F64657220506F736974696F3C
:102D90006E4174536C6F743130434357203D2000B3
:102DA00043656E74657220656E636F646572205052
:102DB0006F736974696F6E4174536C6F7431304313
:102DC00057203D20000A43656E74657220656E636E
:102DD0006F64657220506F736974696F6E417448D7
:102DE0006F6D65203D20004F766572616C6C2072BE
:102DF0006573756C74203D202A2A2A4641494C454A
:102E0000442A2A2A004F766572616C6C20726573C1
:102E1000756C74203D202A2A2A5041535345442A78
:102E20002A2A004E756D626572206F66206D6F767E
:102E3000656D656E74206661696C75726573203DA1
:102E400020004E756D626572206F66206D6F76652D
:102E50006D656E742072657472696573203D200023
:102E6000206379636C65732E000A0A46696E697384
:102E7000686564204379636C652054657374206FC2
:102E80006620006E756D4661696C75726573203DD4
:102E900020006E756D52657472696573203D200067
:102EA00053756363657373203D200067476F546FEC
:102EB000506F736974696F6E5265747269657320BF
:102EC0003D20006E756D4661696C75726573203DBD
:102ED00020006E756D52657472696573203D200027
:102EE00053756363657373203D200067476F546FAC
:102EF000506F736974696F6E52657472696573207F
:102F00003D20005E77697065725F72656D6F7665F2
:102F1000643A307C3A24005E77697065725F72654E
:102F20006D6F7665643A307C3A24005E776970652F
:102F3000725F696E7365727465643A307C3A24001E
:102F40005E77697065725F696E7365727465643A05
:102F5000307C3A240066696E697368656400616C50
:102F60006572740064697370656E73696E67006280
:102F70006F776C006163746976650069646C6500E5
:102F80003A24005E6E61636B3A317C003A24005E45
:102F90006E61636B3A317C006379636C655F746565
:102FA00073745F616C6C006379636C655F746573E7
:102FB000745F686F6C6570756E6368006379636CCD
:102FC000655F746573745F6163747561746F727348
:102FD000006379636C655F746573745F6361726FBE
:102FE0007573656C00746573745F6361726F75737C
:102FF000656C5F656E636F6465727300746573748E
:103000005F6361726F7573656C5F66726963746923
:103010006F6E007A65726F5F63656E7465725F656F
:103020006E636F646572007365745F70616E656C6A
:103030005F6272696768746E657373006361726F53
:103040007573656C5F706F736974696F6E0061632F
:10305000747561746F725F636F756E746572636CA3
:103060006F636B77697365006163747561746F7208
:103070005F636C6F636B776973650061637475611F
:10308000746F725F706F736974696F6E00616374DF
:103090007561746F725F686F6D6500636C656172F6
:1030A0005F6163747561746F725F706F7369746967
:1030B0006F6E730031323334353637383930313250
:1030C00033343536373839303132333435363738B2
:1030D00039303132333435363738393031323334B0
:1030E0003536373839300070756E63685F686F6CDD
:1030F000650063616C6962726174655F7363616CC2
:10310000650076657273696F6E00626F776C5F77CA
:10311000656967687400626F776C5F73746174755A
:1031200073007374617475730073797374656D5F84
:10313000636865636B00666F726365007363616EDD
:103140005F616C6C00726573756D650063616E63C1
:10315000656C007265736574007365745F64656D9A
:103160006F5F6D6F6465007365745F6861735F7234
:10317000656C6F61645F646F6F725F6C6F636B002F
:103180007365745F626F776C5F617265615F636FB7
:103190006C6F725F7479706500706F7765725F73C2
:1031A0006176655F6D6F64650072657363616E5F04
:1031B00063616E6973746572730070617573650025
:1031C000706F736974696F6E5F63616E6973746544
:1031D000725F7265706C616365007363616E5F62DC
:1031E0006172636F64650077697065725F737461A3
:1031F00074757300646F6F725F73746174757300BC
:10320000646F6F725F756E6C6F636B00646F6F726B
:103210005F6C6F636B0064697370656E73655F7478
:10322000696D65640064697370656E73655F616C78
:103230006C0064697370656E73655F776569676854
:10324000740070696E670064656D6F00706F7369FC
:1032500074696F6E5F63616E697374657200736524
:10326000745F7363616C655F6C6564730073657430
:103270005F6C656473002D2D2D2D2D2D2D2D2D2D85
:103280002D2D2D2D00706172616D33203D20007059
:103290006172616D32203D2000706172616D31207C
:1032A0003D2000706172616D32203D2000706172BE
:1032B000616D31203D2000706172616D31203D20D3
:1032C00000416C6C207468652064617461207661D3
:1032D0006C756573203D2000496E746567657220CA
:1032E0004E756D506172616D6574657273203D201D
:1032F00000416C6C20506172616D7320506173737A
:10330000656420004D65737361676554797065204D
:103310003D20002A2A2A2A2A2A2A2A2A2A2A2A2A2E
:103320002A2A2A2A005E626F776C5F72656D6F765B
:1033300065643A307C3A24005E626F776C5F726538
:103340006D6F7665643A307C3A24003A24003A2462
:10335000005E626F776C5F706C616365643A357CA8
:10336000005E626F776C5F706C616365643A357C98
:1033700000436F6C6F722073656E736F7273206E93
:103380006F7420696E7374616C6C65642C20646565
:103390006661756C74696E6720746F2052474228AD
:1033A0002D312C2D312C2D31290044697374616E1F
:1033B00063652073656E736F722072656164205659
:1033C0004C36313830585F4552524F525F4E4F4362
:1033D0004F4E56455247452C20736F207468726FCC
:1033E00077696E6720626F776C5F72656D6F766567
:1033F00064206576656E74206966204162736F6C27
:1034000075746557656967687420697320616C73AA
:103410006F203C2033352E20205479706963616C15
:103420006C792068617070656E732077686572656D
:103430002074686520626F776C20776173207265F5
:103440006D6F76656420717569636B6C792077693F
:1034500074686F757420612072616E676520726593
:103460006164696E6720617661696C61626C652078
:10347000616E796D6F72652C206F72206120626CB5
:1034800061636B20626F776C20696E20626C616390
:103490006B206172656120697320686172642074B9
:1034A0006F20726561642E204162736F6C75746564
:1034B000576569676874203D20002C204162736F56
:1034C0006C757465576569676874203D20005261AA
:1034D0006E6765203E203730206F72204162736F27
:1034E0006C757465576569676874203C2033352CAA
:1034F00020736F207468726F77696E6720626F77D0
:103500006C5F72656D6F766564206576656E742E8E
:103510002052616E6765203D20002C20426F776C41
:10352000506C6163656453616D706C657341667462
:10353000657252464944203D2000426F776C506CC2
:103540006163656453616D706C65734265666F722B
:103550006552464944203D2000426F776C506C61B3
:1035600063656453616D706C657341667465725216
:10357000464944203D2000426F776C506C61636582
:103580006453616D706C65734265666F7265524617
:103590004944203D20003A24005E706F73697469CD
:1035A0006F6E5F63616E69737465725F726573706D
:1035B0003A327C6661696C7572653A003A24005E45
:1035C000706F736974696F6E5F63616E6973746540
:1035D000725F726573703A327C6661696C75726590
:1035E0003A003A24005E706F736974696F6E5F63AE
:1035F000616E69737465725F726573703A327C7361
:103600007563636573733A003A24005E706F736983
:1036100074696F6E5F63616E69737465725F726502
:1036200073703A327C737563636573733A00706FBD
:10363000736974696F6E5F63616E6973746572003C
:1036400056616C7565207061737365643D00496EE9
:1036500020706F736974696F6E2063616E69737433
:1036600065722066756E6374696F6E21005E646FAB
:103670006F725F6C6F636B5F726573703A317C73EE
:103680007563636573733A24005E646F6F725F6C79
:103690006F636B5F726573703A317C7375636365DA
:1036A00073733A2400646F6F725F6C6F636B0041D9
:1036B00066746572204C6F636B696E672C2052656F
:1036C0006C6F6164446F6F72556E6C6F636B5365A2
:1036D0006E736550696E3A20004265666F726520B0
:1036E0004C6F636B696E672C2052656C6F6164442C
:1036F0006F6F72556E6C6F636B53656E7365506957
:103700006E3A2000496E20646F6F725F6C6F636B5E
:103710002066756E6374696F6E210050726F6475F8
:1037200063744944206973206120726567756C6118
:10373000722064697370656E73652073706565646B
:103740002070726F647563742C20736F20646F2017
:103750006E6F726D616C2064697370656E73652E37
:103760000050726F6475637449442069732061204E
:10377000666173742064697370656E73652073701D
:103780006565642070726F647563742C20736F209C
:10379000676F2066617374657220616E6420646F68
:1037A0006E277420736C6F7720646F776E2061745E
:1037B00020656E642E0030303239003030323800EF
:1037C0003030323700303032360030303234002C76
:1037D0002050726F647563744944206973200063DC
:1037E000616E6973746572436F646520697320004C
:1037F00054686973206973204C69676874656E65E5
:10380000722C20736F20646F6E277420676F2061A5
:10381000732066617374206F74686572776973656D
:1038200020636F756C6420686176652070696E63D3
:1038300068206F66662069737375652E00303032BC
:1038400039003A2409003A00095E646973705F70B8
:10385000726F67726573733A327C003A24003A00E3
:103860005E646973705F70726F67726573733A320A
:103870007C005E70617573653A005E726573657495
:103880003A005E63616E63656C3A005E70617573E9
:10389000653A005E72657365743A005E63616E63DB
:1038A000656C3A00526573746F7265642F5361766C
:1038B000656420496E697469616C416374756174F3
:1038C0006F72506F736974696F6E446174613A000E
:1038D000496E2D6D656D6F727920496E69746961ED
:1038E0006C4163747561746F72506F736974696F42
:1038F0006E446174613A002C20736F207772697492
:10390000696E6720746F20454550524F4D20657693
:10391000656E2074686F756768206F7574206F66B8
:103920002072616E67652C20736F206E657874203D
:1039300074696D652077696C6C20776F726B20629B
:1039400065747465722E00203C2050726576696F34
:103950007573496E697469616C4163747561746FE4
:1039600072506F736974696F6E206F6620004E65C8
:103970007720496E697469616C4163747561746F15
:1039800072506F736974696F6E5B5D206F662000A3
:103990003A24003A003A003A005E64697370656E3A
:1039A00073655F7765696768745F726573703A35D0
:1039B0007C72616E67653A003A24003A003A003A38
:1039C000005E64697370656E73655F7765696768CB
:1039D000745F726573703A357C72616E67653A0028
:1039E0003A24003A003A003A005E64697370656EEA
:1039F00073655F7765696768745F726573703A3580
:103A00007C737563636573733A003A24003A003A35
:103A1000003A005E64697370656E73655F7765690F
:103A20006768745F726573703A357C73756363653C
:103A300073733A003A24003A003A003A005E64692F
:103A40007370656E73655F7765696768745F7265CB
:103A500073703A357C63616E63656C3A003A24009A
:103A60003A003A003A005E64697370656E73655F90
:103A70007765696768745F726573703A357C6361F6
:103A80006E63656C3A003A24003A003A003A005EF0
:103A900064697370656E73655F7765696768745F85
:103AA000726573703A357C74616D7065723A003A74
:103AB00024003A003A003A005E64697370656E73E0
:103AC000655F7765696768745F726573703A357CA6
:103AD00074616D7065723A0064697370656E7365C8
:103AE0005F616C6C0064697370656E73655F7765A8
:103AF00069676874002C2053686F756C6452657434
:103B00007279476F46617374426563617573654688
:103B10006972737444697370656E736554696D6519
:103B2000644F7574203D200044697370656E736541
:103B3000206661696C7572652C206E656564207401
:103B40006F2072657472792C20476F696E672074DC
:103B50006F2064697370656E7365206D6F72652088
:103B60006F6E20612072657472792C20746869739D
:103B7000206D756368206D6F7265203D2000526571
:103B80007472792053756D20416D6F756E745F444A
:103B9000697370656E736564203D200054414D501B
:103BA000455220444554454354454420616674655C
:103BB000722066696E6973686564206469737065F4
:103BC0006E73696E672C2072657475726E696E67AC
:103BD0002074616D70657220726573756C742077E6
:103BE00069746820616D6F756E74206469737065A7
:103BF0006E73656420617320547261696C696E67CD
:103C0000576569676874203D2000416D6F756E745B
:103C10005F44697370656E736564206973206E65B7
:103C20006761746976652C206D6F726520746861B8
:103C30006E202D31672C207468657265206D757358
:103C4000742068617665206265656E20736F6D65AE
:103C50002074797065206F662074616D7065722EB6
:103C6000204E6F7420676F696E6720746F207265D5
:103C70007472792E00416D6F756E745F4469737054
:103C8000656E736564203D2000206772616D732C42
:103C900020736F2072657665727365207468652085
:103CA0006163747561746F72210041626F75742075
:103CB000746F2063726F7373200052656365697659
:103CC000656420612043616E63656C20636F6D6D78
:103CD000616E642066726F6D206D616368696E65E8
:103CE0002055492E0054414D5045522044455445DD
:103CF000435445442C2073746F7070696E67206163
:103D00006374756174696F6E20616E64207265748E
:103D100075726E696E672074616D70657220726570
:103D200073756C742E0054616D70657220646574D7
:103D300065637465642C20776569676874206D6FAE
:103D40007265206E65676174697665207468616E5E
:103D5000202D312C20736F6D65626F6479206D7535
:103D6000737420686176652072656D6F7665642076
:103D70007765696768742066726F6D207363616C24
:103D8000652C2072657475726E696E672074616D42
:103D90007065722E0020746F20302E3035207369CC
:103DA0006E6365203C3330206C6F6F7073206C65E0
:103DB000667400094C6F776572696E672074617272
:103DC0006765742073706565642066726F6D20008E
:103DD000094C4C090009534554504F494E54204357
:103DE000616C633D000954726C56340900095472C9
:103DF0006C5609000954726C570900094C6F6164D4
:103E00002063656C6C2073616D706C696E672066F1
:103E100061696C7572652C20676F74203E3230309A
:103E20006720666F722061766572616765206F66D4
:103E3000203130782073616D706C65732C2064695B
:103E40007363617264696E6720616E642074616B74
:103E5000696E67206E65772073616D706C65206890
:103E60006572653A090053616D7009005374616CA5
:103E70006C696E67206465746563746564202D20C9
:103E80007265636F76657279206469646E27742049
:103E9000776F726B2C20736F2073746F7070696E04
:103EA00067207468652064697370656E736520733C
:103EB0006F20776520646F6E27742064616D616781
:103EC0006520746865206D6F746F7220616E642068
:103ED0006472697665722E00095475726E41726F54
:103EE000756E64000A5374616C6C696E672064655A
:103EF000746563746564202D20747279696E67201F
:103F0000746865206261636B2D6F66662D616E64F7
:103F10002D676F2D666173742072657472792E003F
:103F200009456E64313530005374617274696E678F
:103F300020536574706F696E74496E6974466F7250
:103F4000546869734D616368696E65203D2000099E
:103F5000536574706F696E74416D6F756E74546FD4
:103F60004261636B4F66665768656E486974546159
:103F7000726765745370656564203D200009536560
:103F800074706F696E744C6F6F70496E6372656D9B
:103F9000656E74203D2000097461726765745F640A
:103FA000697370656E73655F7370656564203D202D
:103FB0000009414661737444697370656E7365539B
:103FC0004B55203D20006744656D6F4D6F64652043
:103FD0003D2000426F776C20776569676874206EBA
:103FE0006F7420736574746C6564206166746572A7
:103FF0002035207365636F6E64732C207265747551
:10400000726E2074616D7065722E00424F574C20A5
:104010004E4F5420504C41434544207768656E20F4
:104020007374617274696E672064697370656E730E
:1040300065202D20736F206E6F742061637475612D
:1040400074696E672C20616E642072657475726E7F
:10405000696E672074616D7065722E00094162732C
:104060006F6C757465576569676874203D20000939
:104070005461726541444356616C7565203D200072
:10408000095343414C45203D2000094F46465345C6
:1040900054203D200054617265576569676874203B
:1040A0003D20005D203D2000496E697469616C57B8
:1040B000656967687452656164696E67735B005314
:1040C00063616C65206E6F7420736574746C6564D5
:1040D0002C2062656C6F772073616D706C65732046
:1040E0006E6F742077697468696E20312067726121
:1040F0006D2C207265747279696E672075702074FA
:104100006F20352074696D65732E0056616C75657E
:10411000207061737365643D0056616C7565207035
:1041200061737365643D00496E2064697370656EE8
:104130007365207765696768742066756E63746956
:104140006F6E21003A24005E64697370656E73655A
:104150005F74696D65645F726573703A327C737504
:1041600063636573733A003A24005E646973706533
:104170006E73655F74696D65645F726573703A3202
:104180007C737563636573733A0064697370656EFD
:1041900073655F74696D656400416674657220685B
:1041A0006F6D652061637475616C2C20736574702C
:1041B0006F696E742C2070776D3A00456E64696E7D
:1041C00067204163747561746F72206163747561F7
:1041D0006C2C20736574706F696E742C2070776D11
:1041E0003A005374617274696E672041637475613B
:1041F000746F722061637475616C2C2073657470C8
:104200006F696E742C2070776D3A0056616C75651D
:10421000207061737365643D0056616C7565207034
:1042200061737365643D00496E2064697370656EE7
:1042300073652074696D656421003A24003A240096
:104240005E7363616E5F616C6C5F726573703A324E
:104250007C6661696C7572653A005E7363616E5F5E
:10426000616C6C5F726573703A327C6661696C7503
:1042700072653A005E7363616E5F616C6C5F72655C
:1042800073703A327C737563636573733A005E735F
:1042900063616E5F616C6C5F726573703A327C73E0
:1042A0007563636573733A007363616E5F616C6C11
:1042B00000496E207363616E5F616C6C2066756E81
:1042C0006374696F6E210053657269616C206E754D
:1042D0006D6265727320646F206E6F74206D6174FF
:1042E00063682C20776520686176656E277420648A
:1042F000697370656E73656420776974682074688B
:1043000069732063616E6973746572206265666F9C
:104310007265212020536F20626C616E6B206F7577
:1043200074207468652053657269616C4E756D62A6
:1043300065724861734265656E44697370656E733A
:1043400065645B5D2C20616E642073746F72652000
:10435000746865206E65772073657269616C20539F
:10436000657269616C4E756D626572735B5D5B351C
:104370005D0053657269616C206E756D6265727364
:10438000206D617463682C207765277665207365DE
:10439000656E20746869732063616E6973746572F9
:1043A000206265666F72652100476C6F62616C20E8
:1043B000496E697469616C4163747561746F7250A0
:1043C0006F736974696F6E203D20005D203D200091
:1043D000496E697469616C4163747561746F725080
:1043E0006F736974696F6E735B005D203D200053CD
:1043F000657269616C4E756D626572486173426584
:10440000656E44697370656E7365645B00496E76B2
:10441000616C696420626172636F64652C20636102
:104420006E277420636F6D706172652062617263C4
:104430006F6465732E00496E76616C696420736CDD
:104440006F74206E756D6265722C2063616E2774C7
:1044500020636F6D7061726520626172636F646565
:10446000732E0043616E6973746572206E6F7420E1
:10447000616C69676E65642077697468696E205243
:1044800065616446726F6D426172636F6465536308
:10449000616E6E6572205245545259206166746592
:1044A0007220747269676765722C206E656564207E
:1044B000746F20646973636172642074686520732B
:1044C00063616E2E0043616E6973746572206E6F56
:1044D0007420616C69676E65642077697468696EC1
:1044E000205265616446726F6D426172636F6465EC
:1044F0005363616E6E657220524554525920626555
:10450000666F726520747269676765722C206E65CC
:10451000656420746F2064697363617264207468D9
:1045200065207363616E2E0043616E6973746572FA
:10453000206E6F7420616C69676E656420776974A2
:1045400068696E205265616446726F6D4261726384
:104550006F64655363616E6E657220616674657227
:1045600020747269676765722C206E6565642074BB
:104570006F2064697363617264207468652073637B
:10458000616E2E0043616E6973746572206E6F7484
:1045900020616C69676E65642077697468696E2054
:1045A0005265616446726F6D426172636F646553F8
:1045B00063616E6E6572206265666F7265207472EB
:1045C00069676765722C206E65656420746F20646E
:1045D00069736361726420746865207363616E2E11
:1045E0000043616E6973746572206E6F7420616C34
:1045F00069676E65642077697468696E20526561C9
:104600006446726F6D426172636F64655363616E7D
:104610006E6572205245545259206166746572204D
:10462000747269676765722C206E65656420746FAB
:1046300020646973636172642074686520736361C8
:104640006E2E0043616E6973746572206E6F742004
:10465000616C69676E65642077697468696E205261
:1046600065616446726F6D426172636F6465536326
:10467000616E6E6572205245545259206265666FB4
:10468000726520747269676765722C206E65656457
:1046900020746F206469736361726420746865209C
:1046A0007363616E2E0043616E6973746572206E70
:1046B0006F7420616C69676E6564207769746869DE
:1046C0006E205265616446726F6D426172636F6401
:1046D000655363616E6E65722061667465722074E5
:1046E0007269676765722C206E65656420746F203F
:1046F0006469736361726420746865207363616EBA
:104700002E0043616E6973746572206E6F74206150
:104710006C69676E65642077697468696E2052659C
:10472000616446726F6D426172636F646553636169
:104730006E6E6572206265666F726520747269675D
:104740006765722C206E65656420746F20646973E0
:104750006361726420746865207363616E2E003A31
:1047600024005E63616E69737465725F696E737451
:10477000616C6C65643A327C003A24005E63616E61
:1047800069737465725F696E7374616C6C65643AA9
:10479000327C003A24005E63616E69737465725FF7
:1047A00072656D6F7665643A317C003A24005E6311
:1047B000616E69737465725F72656D6F7665643A78
:1047C000317C005E7363616E5F626172636F64650A
:1047D0005F726573703A327C6661696C7572653AB6
:1047E0006661696C7572653A24005E7363616E5F21
:1047F000626172636F64655F726573703A327C6682
:1048000061696C7572653A6661696C7572653A24A6
:10481000005E7363616E5F626172636F64655F7295
:104820006573703A327C737563636573733A656D53
:104830007074793A24005E7363616E5F62617263C3
:104840006F64655F726573703A327C73756363651C
:1048500073733A656D7074793A24007363616E5FA7
:10486000626172636F646500656D70747900736373
:10487000616E5F616C6C00656D707479004261728D
:10488000636F6465206E6F742076616C69642C20A0
:1048900069676E6F7265643A20003A24005E736344
:1048A000616E5F626172636F64655F726573703AB7
:1048B000327C737563636573733A003A24005E73E8
:1048C00063616E5F626172636F64655F726573706E
:1048D0003A327C737563636573733A007363616E18
:1048E0005F626172636F6465007C007C2076732078
:1048F0007C00466F756E6420444946464552454EDD
:104900005420426172636F6465207C007363616E42
:104910005F616C6C0043616E6973746572206E6FC9
:104920007420616C69676E65642C206469736361CF
:104930007264696E6720746865207363616E206FAE
:104940006620736C6F742023002C20536F7574687D
:10495000636F204C61746368203D20002C205265F9
:104960006C6F6164446F6F724F70656E203D200004
:10497000496E207363616E5F626172636F6465206C
:1049800066756E6374696F6E2120536C6F7420239B
:10499000005E76657273696F6E5F726573703A312F
:1049A0007C312D31302D323032313A24007665722F
:1049B00073696F6E005E76657273696F6E5F7265A4
:1049C00073703A317C312D31302D323032313A240E
:1049D00000496E2076657273696F6E5F66756E63EF
:1049E00074696F6E2066756E6374696F6E21003A2C
:1049F00024003A005E63616C6962726174655F7382
:104A000063616C655F726573703A337C7375636361
:104A10006573733A003A24003A005E63616C696220
:104A2000726174655F7363616C655F726573703A20
:104A3000337C737563636573733A004166746572A2
:104A4000205363616C655F43616C69627261746974
:104A50006F6E3A20004265666F7265205363616C29
:104A6000655F43616C6962726174696F6E3A2000C0
:104A700041667465722043616C6962726174696E2B
:104A800067203230303A20004265666F72652043FD
:104A9000616C6962726174696E67203230303A20ED
:104AA000003A24003A005E63616C69627261746569
:104AB0005F7363616C655F726573703A337C7375A5
:104AC00063636573733A003A24003A005E63616C75
:104AD0006962726174655F7363616C655F7265734F
:104AE000703A337C737563636573733A004166741F
:104AF00065722043616C6962726174696E6720300F
:104B00003A20004265666F72652043616C6962728B
:104B10006174696E6720303A200056616C756520BB
:104B20007061737365643D00496E2063616C6962F6
:104B3000726174655F7363616C652066756E637422
:104B4000696F6E21005E7365745F70616E656C5F86
:104B50006272696768746E6573735F726573703AC9
:104B6000317C737563636573733A24005E73657497
:104B70005F70616E656C5F6272696768746E6573A1
:104B8000735F726573703A317C73756363657373B9
:104B90003A24007365745F70616E656C5F62726960
:104BA0006768746E657373005E7365745F70616EC1
:104BB000656C5F6272696768746E6573735F726556
:104BC00073703A317C6661696C7572653A24005E77
:104BD0007365745F70616E656C5F6272696768743B
:104BE0006E6573735F726573703A317C6661696C70
:104BF0007572653A24007365745F70616E656C5FF1
:104C00006272696768746E657373005E626F776C59
:104C10005F7374617475735F726573703A317C6130
:104C20006273656E743A24005E626F776C5F7374B2
:104C3000617475735F726573703A317C616273651C
:104C40006E743A24003A24003A24005E626F776C56
:104C50005F7374617475735F726573703A367C70DC
:104C6000726573656E743A005E626F776C5F737421
:104C7000617475735F726573703A367C70726573B8
:104C8000656E743A002C20426F776C506C616365DE
:104C90006453616D706C6573416674657252464908
:104CA00044203D2000426F776C2077656967687407
:104CB000206E6F7420736574746C65642C2062754B
:104CC000742072657475726E204162736F6C7574B6
:104CD0006557656967687420616E797761792C2002
:104CE000426F776C506C6163656453616D706C6585
:104CF000734265666F726552464944203D20002C20
:104D000020426F776C506C6163656453616D706CA9
:104D10006573416674657252464944203D200042E5
:104D20006F776C506C6163656453616D706C657313
:104D30004265666F726552464944203D2000426FCD
:104D4000776C506C6163656453616D706C65734121
:104D50006674657252464944203D2000436F6C6F73
:104D6000722073656E736F7273206E6F7420696E3C
:104D70007374616C6C65642C2064656661756C7419
:104D8000696E6720746F20524742282D312C2D31D7
:104D90002C2D312900426F776C506C616365645330
:104DA000616D706C65734265666F72655246494409
:104DB000203D20005D203D200053657269616C4EEE
:104DC000756D626572735B005D203D2000536572F6
:104DD00069616C4E756D6265724861734265656E9E
:104DE00044697370656E7365645B005D203D2000EF
:104DF000496E697469616C4163747561746F725056
:104E00006F736974696F6E735B00496E6974696171
:104E10006C4163747561746F72506F736974696FFC
:104E20006E203D200000000A0B02090C0D0E080741
:104E3000030401000000000000000000000000006A
:104E40000000000000000000000000000000000062
:104E5000001211100000000000000000000000001F
:104E600000000000000000000000000000210024FD
:104E70000027002A002D003000330001010000044B
:104E80000107010A01436F72726563746564204112
:104E90004D5432323220456E636F6465723A2000A1
:104EA000414D5432323220456E636F6465723A2050
:104EB00000414D5432323220726561642065727255
:104EC0006F722E20417474656D7074733A200054B3
:104ED000696D6564206F75742C206E6F20656E633C
:104EE0006F6465722064657465637465642E202048
:104EF00042757420617373756D6520414D54323273
:104F000032206F7220746573742073746174696FDA
:104F10006E2E00414D5432323220646574656374E4
:104F200065642E00414D54323033206465746563EE
:104F30007465642E20205765206578706563742041
:104F40003320666F7220646174615F7265636569A6
:104F5000766564203D2000436865636B696E672059
:104F6000656E636F64657220747970652C2064616E
:104F700074615F7265636569766564203D200053E6
:104F80006574757020436F6D706C657465202D209D
:104F9000526561647920666F7220436F6D6D616E3A
:104FA00064733A005573696E672064656661756C59
:104FB00074207363616C652063616C6962726174F3
:104FC000696F6E2076616C7565732E20506C65611B
:104FD00073652063616C69627261746520746865D1
:104FE000207363616C6520736F207468617420693D
:104FF0007420697320616363757261746520666FE4
:1050000072207468697320756E69742E00426F7720
:105010006C2064697374616E63652073656E736F71
:105020007220666F756E6421004661696C6564204C
:10503000746F2066696E642064697374616E636561
:105040002073656E736F72004C6F6F6B696E6720B3
:10505000666F7220626F776C2064697374616E632F
:10506000652073656E736F72202D204164616672D6
:1050700075697420564C3631383078210067657474
:1050800020756E6974733A2009090067657420768B
:10509000616C75653A20090900726561642061766A
:1050A00065726167653A20090900726561643A209A
:1050B00009090041667465722073657474696E67CE
:1050C00020757020746865207363616C653A0053C5
:1050D00063616C65206E6F742063616C69627261DC
:1050E0007465642E20205573696E6720646566615F
:1050F000756C742E0067657420756E6974733A2040
:105100000909006765742076616C75653A200909A4
:10511000007265616420617665726167653A200995
:105120000900726561643A200909004265666F7280
:10513000652073657474696E672075702074686586
:10514000207363616C653A00496E697469616C69CA
:105150007A696E6720746865207363616C650045C9
:105160004550524F4D20626C616E6B2C20777269F6
:1051700074696E672064656661756C74732E004592
:105180004550524F4D2056657273696F6E3A20003C
:105190003A24005E7374617475735F726573703A5C
:1051A000317C003A24005E7374617475735F7265BC
:1051B00073703A317C00496E6E6572204261726391
:1051C0006F646520526561646572204641494C45B3
:1051D0004420746F207363616E2E202043686563E2
:1051E0006B20666F7220726564207363616E206C41
:1051F000696768742C20626172636F646520616CFA
:1052000069676E6D656E742C20616E6420776972BB
:10521000696E672F726962626F6E206361626C658E
:10522000732E00496E6E657220426172636F646511
:10523000205265616465722053756363657373669C
:10524000756C6C79205363616E6E65642042617287
:10525000636F64652000656D707479004F757465C7
:105260007220426172636F64652052656164657289
:10527000204641494C454420746F207363616E2E73
:105280002020436865636B20666F7220726564201E
:105290007363616E206C696768742C20626172634D
:1052A0006F646520616C69676E6D656E742C20613A
:1052B0006E6420776972696E672F726962626F6EC1
:1052C000206361626C65732E004F757465722042B5
:1052D0006172636F64652052656164657220537505
:1052E000636365737366756C6C79205363616E6E6E
:1052F000656420426172636F64652000656D70743F
:105300007900626172636F64650009486F6C655073
:10531000756E63684F75746572536166654F70741E
:105320006F203D200009486F6C6550756E636849B9
:105330006E6E6572536166654F70746F203D20001C
:10534000656E636F646572486F6C6550756E6368F7
:105350004D6F746F72506F73203D2000686F6C65E5
:1053600070756E636800094163747561746F724F84
:105370007574657255704F70746F203D200009413F
:1053800063747561746F72496E6E657255704F709B
:10539000746F203D20004163747561746F72456EB7
:1053A000636F646572203D20006163747561746F82
:1053B00072006361726F7573656C00656570726F02
:1053C0006D0052616E67652072656164696E672069
:1053D0006F766572666C6F770052616E67652072DA
:1053E000656164696E6720756E646572666C6F775F
:1053F000005261772072656164696E67206F76651F
:1054000072666C6F77005261772072656164696EB5
:105410006720756E646572666C6F77005369676E9E
:10542000616C2F4E6F697365206572726F720049EF
:10543000676E6F72696E672072616E6765004E6F8E
:1054400020636F6E76657267656E636500454345E0
:10545000206661696C7572650053797374656D209F
:105460006572726F7200094C75783A090052616E6C
:1054700067653A090064697374616E63650052611F
:105480006E67652072656164696E67206F7665720C
:10549000666C6F770052616E676520726561646942
:1054A0006E6720756E646572666C6F770052617707
:1054B0002072656164696E67206F766572666C6FD5
:1054C00077005261772072656164696E6720756E3E
:1054D000646572666C6F77005369676E616C2F4EFE
:1054E0006F697365206572726F720049676E6F72C3
:1054F000696E672072616E6765004E6F20636F6E24
:1055000076657267656E636500454345206661692F
:105510006C7572650053797374656D206572726F76
:105520007200094C75783A090052616E67653A0954
:105530000052616E67652072656164696E67206FF5
:10554000766572666C6F770052616E676520726572
:105550006164696E6720756E646572666C6F770052
:105560005261772072656164696E67206F7665723B
:10557000666C6F77005261772072656164696E674F
:1055800020756E646572666C6F77005369676E6133
:105590006C2F4E6F697365206572726F7200496778
:1055A0006E6F72696E672072616E6765004E6F2064
:1055B000636F6E76657267656E636500454345206F
:1055C0006661696C7572650053797374656D2065E9
:1055D00072726F7200094C75783A090052616E67F9
:1055E000653A090052616E67652072656164696E93
:1055F00067206F766572666C6F770052616E6765C3
:105600002072656164696E6720756E646572666C90
:105610006F77005261772072656164696E67206FF1
:10562000766572666C6F770052617720726561648F
:10563000696E6720756E646572666C6F770053697A
:10564000676E616C2F4E6F697365206572726F7241
:105650000049676E6F72696E672072616E676500E0
:105660004E6F20636F6E76657267656E6365004589
:105670004345206661696C75726500537973746582
:105680006D206572726F7200094C75783A0900528C
:10569000616E67653A090052616E676520726561E7
:1056A00064696E67206F766572666C6F7700526111
:1056B0006E67652072656164696E6720756E6465EA
:1056C00072666C6F77005261772072656164696EF3
:1056D00067206F766572666C6F7700526177207213
:1056E000656164696E6720756E646572666C6F775C
:1056F000005369676E616C2F4E6F69736520657228
:10570000726F720049676E6F72696E672072616EA8
:105710006765004E6F20636F6E76657267656E63B6
:105720006500454345206661696C75726500537973
:105730007374656D206572726F7200094C75783AEA
:10574000090052616E67653A090052616E67652013
:1057500072656164696E67206F766572666C6F77DB
:105760000052616E67652072656164696E672075BD
:105770006E646572666C6F77005261772072656146
:1057800064696E67206F766572666C6F7700526130
:10579000772072656164696E6720756E64657266F4
:1057A0006C6F77005369676E616C2F4E6F6973651C
:1057B000206572726F720049676E6F72696E672042
:1057C00072616E6765004E6F20636F6E76657267FB
:1057D000656E636500454345206661696C75726559
:1057E0000053797374656D206572726F7200094C95
:1057F00075783A090052616E67653A09004973424B
:105800006C61636B426F776C41726561203D200073
:10581000636F6C6F72005769706572496E73657261
:10582000746564203D200077697065720052656C74
:105830006F6164446F6F72556E6C6F636B53656E0E
:10584000736550696E203D200052656C6F61644441
:105850006F6F724F70656E203D20004131342041E2
:105860004D49532D3330353433205664642052650E
:105870006C6F6164446F6F72436C6F736564203D3D
:105880002000646F6F720072666964004375727203
:10589000656E74205765696768743A0900416273E0
:1058A0006F6C7574652077656967687420767320FE
:1058B0005A65726F20706F696E743A20090900533F
:1058C00063616C655F43616C6962726174696F6E7C
:1058D0005F5A65726F3A200909007261772041446E
:1058E00043206765742076616C7565206D696E75FF
:1058F0007320746172653A20090900726177204152
:105900004443207265616420617665726167653A1F
:10591000200909007363616C65007363616C650045
:105920003A24005E61636B3A317C003A24005E6188
:10593000636B3A317C00656E636F646572537465A6
:1059400070706572506F73206F7574206F6620726F
:10595000616E6765202D2073657474696E67206EB3
:10596000657720656E636F646572537465707065EA
:1059700072506F73206F66200043757272656E748B
:10598000506F736974696F6E206F7574206F662035
:1059900072616E6765202D2073657474696E67206F
:1059A0006E65772043757272656E7420506F7369EF
:1059B00074696F6E206F662000656E636F64657238
:1059C00053746570706572506F73206F7574206FBB
:1059D000662072616E6765202D2073657474696E30
:1059E00067206E657720656E636F646572537465BA
:1059F00070706572506F73206F662000437572720D
:105A0000656E74506F736974696F6E206F75742062
:105A10006F662072616E6765202D207365747469EE
:105A20006E67206E65772043757272656E742050C4
:105A30006F736974696F6E206F6620004361726FC7
:105A40007573656C206D6F76656D656E742066612B
:105A5000696C65642E2020536C697070696E6720D4
:105A600063757272656E74207761732000414D54C6
:105A700032323220456E636F64657220506F7369F5
:105A800074696F6E204572726F72206F66200054C9
:105A9000617267657420414D5432323220456E6325
:105AA0006F64657220506F736974696F6E206F66E2
:105AB000200043757272656E7420414D543232324B
:105AC00020456E636F64657220506F736974696FEF
:105AD0006E206F662000414D5432303320456E6396
